{
  "contractName": "MyDeFiProject",
  "abi": [
    {
      "inputs": [
        {
          "internalType": "address",
          "name": "_comptroller",
          "type": "address"
        },
        {
          "internalType": "address",
          "name": "_priceOracle",
          "type": "address"
        }
      ],
      "stateMutability": "nonpayable",
      "type": "constructor"
    },
    {
      "inputs": [],
      "name": "comptroller",
      "outputs": [
        {
          "internalType": "contract ComptrollerInteface",
          "name": "",
          "type": "address"
        }
      ],
      "stateMutability": "view",
      "type": "function"
    },
    {
      "inputs": [],
      "name": "priceOracle",
      "outputs": [
        {
          "internalType": "contract PriceOracleInterface",
          "name": "",
          "type": "address"
        }
      ],
      "stateMutability": "view",
      "type": "function"
    },
    {
      "inputs": [
        {
          "internalType": "address",
          "name": "cTokenAddress",
          "type": "address"
        },
        {
          "internalType": "uint256",
          "name": "underlyingAmount",
          "type": "uint256"
        }
      ],
      "name": "supply",
      "outputs": [],
      "stateMutability": "nonpayable",
      "type": "function"
    },
    {
      "inputs": [
        {
          "internalType": "address",
          "name": "cTokenAddress",
          "type": "address"
        },
        {
          "internalType": "uint256",
          "name": "cTokenAmount",
          "type": "uint256"
        }
      ],
      "name": "redeem",
      "outputs": [],
      "stateMutability": "nonpayable",
      "type": "function"
    },
    {
      "inputs": [
        {
          "internalType": "address",
          "name": "cTokenAddress",
          "type": "address"
        }
      ],
      "name": "enterMarket",
      "outputs": [],
      "stateMutability": "nonpayable",
      "type": "function"
    },
    {
      "inputs": [
        {
          "internalType": "address",
          "name": "cTokenAddress",
          "type": "address"
        },
        {
          "internalType": "uint256",
          "name": "borrowAmount",
          "type": "uint256"
        }
      ],
      "name": "borrow",
      "outputs": [],
      "stateMutability": "nonpayable",
      "type": "function"
    },
    {
      "inputs": [
        {
          "internalType": "address",
          "name": "cTokenAddress",
          "type": "address"
        },
        {
          "internalType": "uint256",
          "name": "underlyingAmount",
          "type": "uint256"
        }
      ],
      "name": "repayBorrow",
      "outputs": [],
      "stateMutability": "nonpayable",
      "type": "function"
    },
    {
      "inputs": [
        {
          "internalType": "address",
          "name": "cTokenAddress",
          "type": "address"
        }
      ],
      "name": "getMaxBorrow",
      "outputs": [
        {
          "internalType": "uint256",
          "name": "",
          "type": "uint256"
        }
      ],
      "stateMutability": "view",
      "type": "function"
    }
  ],
  "bytecode": "0x608060405234801561001057600080fd5b506040516112473803806112478339818101604052604081101561003357600080fd5b810190808051906020019092919080519060200190929190505050816000806101000a81548173ffffffffffffffffffffffffffffffffffffffff021916908373ffffffffffffffffffffffffffffffffffffffff16021790555080600160006101000a81548173ffffffffffffffffffffffffffffffffffffffff021916908373ffffffffffffffffffffffffffffffffffffffff1602179055505050611167806100e06000396000f3fe608060405234801561001057600080fd5b50600436106100885760003560e01c80635fe3b5671161005b5780635fe3b567146101a1578063abdb5ea8146101d5578063f2b9fdb814610223578063fd1c317a1461027157610088565b80631e9a69501461008d5780632630c12f146100db5780633fe5d4251461010f5780634b8a352914610153575b600080fd5b6100d9600480360360408110156100a357600080fd5b81019080803573ffffffffffffffffffffffffffffffffffffffff169060200190929190803590602001909291905050506102c9565b005b6100e36103bf565b604051808273ffffffffffffffffffffffffffffffffffffffff16815260200191505060405180910390f35b6101516004803603602081101561012557600080fd5b81019080803573ffffffffffffffffffffffffffffffffffffffff1690602001909291905050506103e5565b005b61019f6004803603604081101561016957600080fd5b81019080803573ffffffffffffffffffffffffffffffffffffffff16906020019092919080359060200190929190505050610678565b005b6101a96107f4565b604051808273ffffffffffffffffffffffffffffffffffffffff16815260200191505060405180910390f35b610221600480360360408110156101eb57600080fd5b81019080803573ffffffffffffffffffffffffffffffffffffffff16906020019092919080359060200190929190505050610818565b005b61026f6004803603604081101561023957600080fd5b81019080803573ffffffffffffffffffffffffffffffffffffffff16906020019092919080359060200190929190505050610a41565b005b6102b36004803603602081101561028757600080fd5b81019080803573ffffffffffffffffffffffffffffffffffffffff169060200190929190505050610c6a565b6040518082815260200191505060405180910390f35b600082905060008173ffffffffffffffffffffffffffffffffffffffff1663db006a75846040518263ffffffff1660e01b815260040180828152602001915050602060405180830381600087803b15801561032357600080fd5b505af1158015610337573d6000803e3d6000fd5b505050506040513d602081101561034d57600080fd5b81019080805190602001909291905050509050600081146103b9576040517f08c379a000000000000000000000000000000000000000000000000000000000815260040180806020018281038252604681526020018061100a6046913960600191505060405180910390fd5b50505050565b600160009054906101000a900473ffffffffffffffffffffffffffffffffffffffff1681565b6060600167ffffffffffffffff811180156103ff57600080fd5b5060405190808252806020026020018201604052801561042e5781602001602082028036833780820191505090505b509050818160008151811061043f57fe5b602002602001019073ffffffffffffffffffffffffffffffffffffffff16908173ffffffffffffffffffffffffffffffffffffffff1681525050606060008054906101000a900473ffffffffffffffffffffffffffffffffffffffff1673ffffffffffffffffffffffffffffffffffffffff1663c2998238836040518263ffffffff1660e01b81526004018080602001828103825283818151815260200191508051906020019060200280838360005b8381101561050a5780820151818401526020810190506104ef565b5050505090500192505050600060405180830381600087803b15801561052f57600080fd5b505af1158015610543573d6000803e3d6000fd5b505050506040513d6000823e3d601f19601f82011682018060405250602081101561056d57600080fd5b810190808051604051939291908464010000000082111561058d57600080fd5b838201915060208201858111156105a357600080fd5b82518660208202830111640100000000821117156105c057600080fd5b8083526020830192505050908051906020019060200280838360005b838110156105f75780820151818401526020810190506105dc565b50505050905001604052505050905060008160008151811061061557fe5b602002602001015114610673576040517f08c379a0000000000000000000000000000000000000000000000000000000008152600401808060200182810382526050815260200180610fba6050913960600191505060405180910390fd5b505050565b600082905060008173ffffffffffffffffffffffffffffffffffffffff16636f307dc36040518163ffffffff1660e01b815260040160206040518083038186803b1580156106c557600080fd5b505afa1580156106d9573d6000803e3d6000fd5b505050506040513d60208110156106ef57600080fd5b8101908080519060200190929190505050905060008273ffffffffffffffffffffffffffffffffffffffff1663c5ebeaec856040518263ffffffff1660e01b815260040180828152602001915050602060405180830381600087803b15801561075757600080fd5b505af115801561076b573d6000803e3d6000fd5b505050506040513d602081101561078157600080fd5b81019080805190602001909291905050509050600081146107ed576040517f08c379a00000000000000000000000000000000000000000000000000000000081526004018080602001828103825260468152602001806110506046913960600191505060405180910390fd5b5050505050565b60008054906101000a900473ffffffffffffffffffffffffffffffffffffffff1681565b600082905060008173ffffffffffffffffffffffffffffffffffffffff16636f307dc36040518163ffffffff1660e01b815260040160206040518083038186803b15801561086557600080fd5b505afa158015610879573d6000803e3d6000fd5b505050506040513d602081101561088f57600080fd5b810190808051906020019092919050505090508073ffffffffffffffffffffffffffffffffffffffff1663095ea7b385856040518363ffffffff1660e01b8152600401808373ffffffffffffffffffffffffffffffffffffffff16815260200182815260200192505050602060405180830381600087803b15801561091357600080fd5b505af1158015610927573d6000803e3d6000fd5b505050506040513d602081101561093d57600080fd5b81019080805190602001909291905050505060008273ffffffffffffffffffffffffffffffffffffffff16630e752702856040518263ffffffff1660e01b815260040180828152602001915050602060405180830381600087803b1580156109a457600080fd5b505af11580156109b8573d6000803e3d6000fd5b505050506040513d60208110156109ce57600080fd5b8101908080519060200190929190505050905060008114610a3a576040517f08c379a000000000000000000000000000000000000000000000000000000000815260040180806020018281038252604b815260200180610f6f604b913960600191505060405180910390fd5b5050505050565b600082905060008173ffffffffffffffffffffffffffffffffffffffff16636f307dc36040518163ffffffff1660e01b815260040160206040518083038186803b158015610a8e57600080fd5b505afa158015610aa2573d6000803e3d6000fd5b505050506040513d6020811015610ab857600080fd5b810190808051906020019092919050505090508073ffffffffffffffffffffffffffffffffffffffff1663095ea7b385856040518363ffffffff1660e01b8152600401808373ffffffffffffffffffffffffffffffffffffffff16815260200182815260200192505050602060405180830381600087803b158015610b3c57600080fd5b505af1158015610b50573d6000803e3d6000fd5b505050506040513d6020811015610b6657600080fd5b81019080805190602001909291905050505060008273ffffffffffffffffffffffffffffffffffffffff1663a0712d68856040518263ffffffff1660e01b815260040180828152602001915050602060405180830381600087803b158015610bcd57600080fd5b505af1158015610be1573d6000803e3d6000fd5b505050506040513d6020811015610bf757600080fd5b8101908080519060200190929190505050905060008114610c63576040517f08c379a00000000000000000000000000000000000000000000000000000000081526004018080602001828103825260448152602001806110966044913960600191505060405180910390fd5b5050505050565b60008060008060008054906101000a900473ffffffffffffffffffffffffffffffffffffffff1673ffffffffffffffffffffffffffffffffffffffff16635ec88c79306040518263ffffffff1660e01b8152600401808273ffffffffffffffffffffffffffffffffffffffff16815260200191505060606040518083038186803b158015610cf757600080fd5b505afa158015610d0b573d6000803e3d6000fd5b505050506040513d6060811015610d2157600080fd5b8101908080519060200190929190805190602001909291908051906020019092919050505092509250925060008314610da5576040517f08c379a00000000000000000000000000000000000000000000000000000000081526004018080602001828103825260588152602001806110da6058913960600191505060405180910390fd5b60008114610e1b576040517f08c379a00000000000000000000000000000000000000000000000000000000081526004018080602001828103825260128152602001807f6163636f756e7420756e6465727761746572000000000000000000000000000081525060200191505060405180910390fd5b60008211610e91576040517f08c379a00000000000000000000000000000000000000000000000000000000081526004018080602001828103825260208152602001807f6163636f756e7420646f6573206e6f74206861766520636f6c6c61746572616c81525060200191505060405180910390fd5b6000600160009054906101000a900473ffffffffffffffffffffffffffffffffffffffff1673ffffffffffffffffffffffffffffffffffffffff1663fc57d4df876040518263ffffffff1660e01b8152600401808273ffffffffffffffffffffffffffffffffffffffff16815260200191505060206040518083038186803b158015610f1c57600080fd5b505afa158015610f30573d6000803e3d6000fd5b505050506040513d6020811015610f4657600080fd5b81019080805190602001909291905050509050808381610f6257fe5b0494505050505091905056fe63546f6b656e237265706179426f72726f772829206661696c65642e2073656520436f6d70756e64204572726f725265706f727465722e736f6c20666f72206d6f72652064657461696c73636f6d7074726f6c6c657223656e7465724d61726b65742829206661696c65642e2073656520436f6d70756e64204572726f725265706f727465722e736f6c20666f72206d6f72652064657461696c7363546f6b656e2372656465656d2829206661696c65642e2073656520436f6d70756e64204572726f725265706f727465722e736f6c20666f72206d6f72652064657461696c7363546f6b656e23626f72726f772829206661696c65642e2073656520436f6d70756e64204572726f725265706f727465722e736f6c20666f72206d6f72652064657461696c7363546f6b656e236d696e742829206661696c65642e2073656520436f6d70756e64204572726f725265706f727465722e736f6c20666f72206d6f72652064657461696c73636f6d7074726f6c6c6572236765744163636f756e744c69717569646974792829206661696c65642e2073656520436f6d70756e64204572726f725265706f727465722e736f6c20666f72206d6f72652064657461696c73a264697066735822122056320c0b8eac1dfe03ebc50d8dd54dcb5b7dbf30b01a620429463e4a882c0a7164736f6c63430007030033",
  "immutableReferences": {},
  "source": "pragma solidity 0.7.3;\n\nimport \"@openzeppelin/contracts/token/ERC20/IERC20.sol\";\nimport \"./CTokenInterface.sol\";\nimport \"./ComptrollerInteface.sol\";\nimport \"./PriceOracleInterface.sol\";\n\ncontract MyDeFiProject {\n    ComptrollerInteface public comptroller;\n    PriceOracleInterface public priceOracle;\n\n    constructor(address _comptroller, address _priceOracle) {\n        comptroller = ComptrollerInteface(_comptroller);\n        priceOracle = PriceOracleInterface(_priceOracle);\n    }\n\n    // lending Token Start\n    function supply(address cTokenAddress, uint256 underlyingAmount) external {\n        CTokenInterface cToken = CTokenInterface(cTokenAddress);\n        address underlyingAddress = cToken.underlying();\n        IERC20(underlyingAddress).approve(cTokenAddress, underlyingAmount);\n        uint256 result = cToken.mint(underlyingAmount);\n        require(\n            result == 0,\n            \"cToken#mint() failed. see Compund ErrorReporter.sol for more details\"\n        );\n    }\n\n    function redeem(address cTokenAddress, uint256 cTokenAmount) external {\n        CTokenInterface cToken = CTokenInterface(cTokenAddress);\n        uint256 result = cToken.redeem(cTokenAmount);\n        require(\n            result == 0,\n            \"cToken#redeem() failed. see Compund ErrorReporter.sol for more details\"\n        );\n    }\n\n    // lending Token end\n\n    // Borrowing Token Start\n    function enterMarket(address cTokenAddress) external {\n        address[] memory markets = new address[](1);\n        markets[0] = cTokenAddress;\n        uint256[] memory results = comptroller.enterMarkets(markets);\n        require(\n            results[0] == 0,\n            \"comptroller#enterMarket() failed. see Compund ErrorReporter.sol for more details\"\n        );\n    }\n\n    function borrow(address cTokenAddress, uint256 borrowAmount) external {\n        CTokenInterface cToken = CTokenInterface(cTokenAddress);\n        address underlyingAddress = cToken.underlying();\n        uint256 result = cToken.borrow(borrowAmount);\n        require(\n            result == 0,\n            \"cToken#borrow() failed. see Compund ErrorReporter.sol for more details\"\n        );\n    }\n\n    function repayBorrow(address cTokenAddress, uint256 underlyingAmount)\n        external\n    {\n        CTokenInterface cToken = CTokenInterface(cTokenAddress);\n        address underlyingAddress = cToken.underlying();\n        IERC20(underlyingAddress).approve(cTokenAddress, underlyingAmount);\n        uint256 result = cToken.repayBorrow(underlyingAmount);\n        require(\n            result == 0,\n            \"cToken#repayBorrow() failed. see Compund ErrorReporter.sol for more details\"\n        );\n    }\n    \n    function getMaxBorrow(address cTokenAddress)external view returns(uint) {\n        (uint result,uint liquidity, uint shortfall) = comptroller.getAccountLiquidity(address(this));\n      require(\n            result == 0,\n            \"comptroller#getAccountLiquidity() failed. see Compund ErrorReporter.sol for more details\"\n        );\n        require(shortfall == 0,'account underwater');\n        require(liquidity > 0,'account does not have collateral');\n        uint underlyingPrice = priceOracle.getUnderlyingPrice(cTokenAddress);\n        return liquidity / underlyingPrice;\n    }\n}\n",
  "sourcePath": "/home/kumailali/kumail/Defi-Mastery/Compound/contracts/MyDeFiProject.sol",
  "compiler": {
    "name": "solc",
    "version": "0.7.3+commit.9bfce1f6.Emscripten.clang"
  },
  "schemaVersion": "3.4.1",
  "updatedAt": "2021-07-02T14:08:38.668Z",
  "devdoc": {
    "kind": "dev",
    "methods": {},
    "version": 1
  },
  "userdoc": {
    "kind": "user",
    "methods": {},
    "version": 1
  }
}